:1000000000200020C1010000ED010000ED01000012
:10001000ED010000ED010000ED010000ED01000028
:10002000ED010000ED010000ED010000ED01000018
:10003000ED010000EC010000ED01000029120000BC
:10004000ED01000001120000ED010000ED010000D3
:10005000ED010000ED01000021120000ED010000A3
:10006000ED010000ED010000ED010000ED010000D8
:10007000ED010000ED010000ED010000ED010000C8
:10008000ED010000ED010000ED010000ED010000B8
:10009000ED01000010B5064C2378002B07D1054B6D
:1000A000002B02D0044800E000BF0123237010BDE4
:1000B00080000020000000002C170000044B10B549
:1000C000002B03D00349044800E000BF10BDC04628
:1000D00000000000840000202C170000164B002BAD
:1000E00000D1144B9D46402292029A1A924600215A
:1000F0008B460F461348144A121A01F049FA0F4B67
:10010000002B00D098470E4B002B00D098470020C2
:10011000002104000D000D48002802D00C4800E02A
:1001200000BF01F011FA2000290001F085F801F06C
:10013000F5F9C04600000800002000200000000083
:100140000000000080000020B80000200000000037
:100150000000000010B501210A4800F083F90121D8
:10016000094800F07FF9002304220421052000F053
:1001700015FD052000230422052100F00FFD0020BD
:1001800010BDC04640810400008204000B4AC30732
:100190000AD4C8231021D150084A83070AD4C8239F
:1001A0002021D15000207047C4231021D150034A90
:1001B0008307F4D5C4232021D150F3E70060004029
:1001C000064880470649074A074B9B1A03DD043B54
:1001D000C858D050FBDCFFF781FF0000D9020000B7
:1001E000381700000000002080000020FEE7C04615
:1001F0000048704700366E01254B264ADB6A10B571
:1002000013408022520193422DD013D980229201B3
:1002100093420CD08022D204934212D11E481C4B30
:100220001968C903490F013101F0ECF810BD1B4BEF
:100230001868F4E780221201934202D1184B186823
:10024000EDE7E022124BD200DB68134080229200DF
:10025000934215D00AD8002B16D0013AFF3A9342A8
:1002600010D11048DBE780200002D8E7C0229200BE
:1002700093420BD00132FF32934203D10A48CEE7BA
:100280000A48CCE70020CAE70948C8E70948C6E79A
:1002900000800C40003C000400366E010800002085
:1002A0000400002040B56400406F4001C0D8A700A2
:1002B000804F1200809FD50010B5FFF79DFF044BC3
:1002C0005A680F231340D840024B186010BDC04637
:1002D00000800C4000000020014A024B9A607047E9
:1002E0000000000000ED00E0802000027047C046E2
:1002F000FA2080007047C046014B18687047C0461E
:100300000800002070B50E4B0E4CE56BE363FFF761
:100310006FFF0D4B62680021984203D90B4B0131EE
:1003200098420AD80720074A536883430B43536017
:10033000002D01D00023D36370BD06311140F1E7D9
:10034000711B000000000C400024F4000048E8018C
:10035000E0218022194BC9005B6992000B40934257
:1003600020D007D8002B1BD0013AFF3A934209D185
:1003700013487047C0229200934205D08B4201D1AE
:100380001048F6E70020F4E712200F4BDB6C1B0E41
:10039000984280410D4B18400D4B9C466044E8E765
:1003A0000C48E6E71220084BDB6C1B0E984280419C
:1003B000094B1840094B9C466044DAE700800C402A
:1003C000C0D8A700406F4001B081E00F400D03008E
:1003D00040420F00809FD50080E5F9FFC0CF6A0042
:1003E00003061B0F0D2B03D81A4A9B00D3589F46B8
:1003F000012070470120184B5B681B0A0340013342
:100400009840F6E7144B1868C003400F0130F0E73E
:10041000114B01209A680F2313409840E9E70E4BD7
:1004200001205A680F2313409840E2E70B4B984293
:10043000DED1094B01209A6E0F2313409840D8E774
:10044000074B9842D4D1044B01201A6F0323134069
:100450009840CEE7D015000000800C4080061200C6
:1004600090071A00030530B51B0F0A2B0DD8194A47
:100470009B00D3589F46C003174CC00E01228240F8
:100480008140236893431943216030BDC003C00EEF
:10049000124CF3E78025C003114CC00E6D00114BC8
:1004A0005A6DD207EAD41A6D1542FCD1E6E7C003B3
:1004B000C00E0D4CE2E7C003C00E0C4CDEE7C003DB
:1004C000C00E10250A4CEAE7C003C00E0125094CF6
:1004D000E5E7C0460816000078800C4040800C40DC
:1004E00064800C4000800C4008800C4044800C402C
:1004F00060800C4058800C400F23184007285CD8BF
:10050000364B80001B589F4607207047344BD86AF3
:10051000E023DB02184080239B0298424FD08023C7
:10052000DB02984257D02F4B9C46604443425841CF
:100530000130EAE72A4B2C4ADB6A13408022520141
:1005400093423CD041D98022022092019342DCD0D8
:1005500080220930D2049342D7D00520D5E70C235E
:100560001F4A916A0B40082B2DD00C2B29D0042B4D
:1005700025D08023906A5B0317E03020184B9B6ADC
:10058000184010281BD02038434258410130BCE7A6
:100590000323134A916A0B40022B14D0032B10D073
:1005A000012B0CD08023906A5B02184043425841D3
:1005B0000A23404298430C30A7E70020A5E7032018
:1005C000A3E70620A1E702209FE780220420120172
:1005D00093429AD0C1E70A2097E7C046341600003C
:1005E00000800C400000FFFF003C000410B5040038
:1005F000FFF782FF1B4B9C4217D01B4B9C420CD138
:100600001A4A936A1B079B0F022B14D0032B18D096
:10061000012B13D0936A14221DE002280BD003286B
:100620000FD001280AD0002010BD03230F4A916A81
:100630000B40022B09D1FFF75FFEF5E7FFF754FEF1
:10064000F2E7FFF739FE4008EEE7032BF9D0012B64
:10065000F4D0936A1022D3400020002BE4D0FFF79F
:1006600047FEE1E702001E000300200000800C406E
:10067000F82103009022890370B50B400400520357
:1006800093425CD00DD88022D202934242D01ED831
:10069000002B3CD080229202934236D1FFF70CFE11
:1006A00070BD80229203934252D01BD998229203AC
:1006B000934237D08B4228D1FFF7FEFD0500200082
:1006C000FFF78EFE0100280000F09CFEE8E7E02224
:1006D0001203934212D080225203934215D1FFF7A6
:1006E00037FEDDE7D0225203934235D0F022520389
:1006F00093420AD12148FFF779FFD1E72048FFF75D
:10070000FBFE0728EBD0092801D00020C8E7FFF73F
:1007100073FDC5E7FFF770FD1A4B9A680F2313406E
:10072000D840BDE71848FFF7E7FE032822D01CD9C0
:100730000928ECD00A28E8D1144B1868B0E70F4814
:10074000FFF754FF0F4B9A6E0F231340D840A7E7D3
:100750000F48FFF74BFFA3E70D48FFF747FF094B93
:100760001A6F03231340D8409AE70228CDD1FFF730
:10077000C3FD95E7FFF7B8FD92E7C04602001E00F3
:1007800006000E0000800C40073326000C000020FD
:100790000300200010B5052805D8174B80001B5812
:1007A0009F46164A136210BD02230120012400292E
:1007B000F7D0124B1862002AF5D00122A24010494E
:1007C0000B681342FCD0EEE7202310200524EEE74F
:1007D000802380201B01C0001624E8E780238020AE
:1007E0009B0040000924E2E7802340200724DEE745
:1007F000082304200324DAE75416000000800C408C
:100800002C800C4070B50F240440072C27D86C4A6C
:10081000A300D3589F460120032501220121FFF7A1
:10082000B9FFFFF76FFD674B5D62FFF745FD664B54
:100830006649DA6BD9635968654B984200D8B6E0CF
:10084000644B984201D907240C4007215E4B58683D
:10085000884304435C60002A01D00022DA6370BD43
:1008600003293AD00A2953D00229F8D18022554BC6
:10087000520059491A6292180B681342FCD0402367
:100880008021504A49025362D36A0B42FCD0E6E70A
:10089000022911D0032931D00129E0D1002115E02E
:1008A0000C29DCD84D4B89005B589F460B29D6D8C4
:1008B0004B4B89005B589F468022424B5200464971
:1008C0001A6292180B681342FCD0202130203D4A56
:1008D000936A83430B439362C1E74022394B3E49FD
:1008E0001A6240320B681A42FCD060238021354ADC
:1008F00089025362D36A0B42FCD0B0E74022314BED
:1009000035491A6240320B681A42FCD01021DDE7EB
:1009100080222C4BD2001A6280222F49D2030B680E
:100920001342FCD080238021264AC9025362D36A35
:100930000B42FCD093E7012200232248816A022C5B
:1009400037D012059B001343264A0A4013438362A3
:1009500085E70421244A13680B4313600022032314
:10096000EBE74022174B1C491A6240320B681A42CF
:10097000FCD000220123E0E78022124B52001649EE
:100980001A6292180B681342FCD000220223D4E7AB
:1009900000220023D1E7052005253EE7032001259D
:1009A0003BE70220022538E70020042535E7002434
:1009B0004BE70E4C120421400B431A4382624EE770
:1009C0006C16000000800C4000000C40711B000001
:1009D0000024F4000048E8012C800C408C16000034
:1009E000C0160000F3FFEFFF40800C40FCFFFEFF4D
:1009F000EFF3108072B67047002800D162B67047DE
:100A0000054B10B5DA6A054B11201A60FFF774FD2B
:100A1000034B187010BDC04600800C409C000020A5
:100A2000A0000020842370B5562080261049114A6A
:100A3000114CCD58CA502268FF30D30AF60010403E
:100A4000334003430B620D4B1978052903D0112065
:100A5000FFF7D8FE2268D30702D40222044B1A62A1
:100A6000EB0703D584230021014AD15070BDC04655
:100A700000800C400E5800009C000020A0000020C8
:100A80007047C0467047C046F8B5061E28D184227C
:100A9000164B174899589850A02080001862C90733
:100AA00001D5002199500421124A134D13690B43BB
:100AB00013612C68114B1C408023EC50FFF7E0FFC2
:100AC000FFF796FF070000F07BFD3800FFF794FF6B
:100AD000FFF7D8FF2C60002E05D1FFF7EDFBF8BD26
:100AE000FFF78EFFD3E7FFF79DFFF8E700800C408C
:100AF0000E58000000ED00E000E100E094A3F7FFD5
:100B0000F0B5C64600B506A90E7807A90D78072AE4
:100B100028D914000727083CA4001A49A7408C468E
:100B2000A0400968B9430843614608600124944025
:100B3000E14393409640144F95403868084018436D
:100B40003860124F12483B680B4033433B608E23A2
:100B50005B00C4500F48036819402943016004BC7E
:100B60009046F0BD91008C460B4F072439688846AB
:100B700061468C404146A1436446A040084338602A
:100B8000D4E7C04604610040086100400C610040A9
:100B9000006000401061004000610040F0B5C646B2
:100BA000C40000B59846002A09D0012526188D40BA
:100BB000B600002B2FD01D4B9C46664435611B4B65
:100BC00025189C46AD006544072918D80F278B00CF
:100BD0009F406E68BE4317009F403E436E60002AF0
:100BE0000AD14346013224188A40A400002B17D1B1
:100BF0000E4B9C466444626104BC9046F0BD0C4BB5
:100C0000AE68CF180F23BF00BB409E431300BB400C
:100C10001E43AE60E3E7054B9C4666447561CEE734
:100C2000024B9C4664442261E6E7C04600600040F7
:100C3000F8FFFF3FF8B5040003260068154F1500C4
:100C40003840206022681E4033023A40134323603C
:100C5000002902D1104B9C4216D023680F4B9B5D9C
:100C60006B43002B0BD0AD00E843C01840181900AF
:100C700000F0C8FB236801389B0701D42061F8BD50
:100C80000028FBD10130F9E70548FFF7F1FC01002E
:100C9000E3E7C046FFFCFFFF00A000401417000080
:100CA00000B20400002370B543630D4B0D000363D5
:100CB0004B7801214B40022102685B008A431343B9
:100CC0000360AA680400002A03D02B7B6968FFF741
:100CD000B1FF012122682B788A431343236070BD42
:100CE000FFFF0100F0B5C646B04B00B5984200D0FA
:100CF00006E1C021AE4B846AC9009D685F881E79F9
:100D00001A78214000D01FE1082A00D9D0E0A94973
:100D100092008A589746A2061AD51A79A34CD20097
:100D2000AD182A895988E6698A4200D8DDE06D68E5
:100D3000481C80B258806E54824200D8D5E004230B
:100D40006360012A04D9013A904201D104336360FF
:100D5000012010E0802252001442F9D00120934972
:100D60000A63F73A1A701856002290494A6301281C
:100D700001D100205A7004BC9046F0BD802222426E
:100D800000D0F6E040222242E2D088490A636A8815
:100D9000D00600D503E1920767D507221A701B79A8
:100DA000DB00ED182B89012BD2D107334B600120DA
:100DB000E1E78022224200D0DBE040222242C7D07D
:100DC0007A490A636A8892074FD5C0228C6AD2009A
:100DD000144200D0E0E00020002203211970002A14
:100DE00000D008E1002800D01E7169882888CA0652
:100DF00066D50622000A0240F0200243490701D5C9
:100E000001210A4304211970684B033959600120FC
:100E10005A62B0E768882988C20654D50622090AB2
:100E20000A40F0210A4301211970604B01205A62E7
:100E30005960A0E78022224200D09AE0402222425C
:100E400000D185E759490A636A8850075BD50722B4
:100E500001201A708FE78022224200D089E04022D0
:100E6000224200D174E751490A63C0228C6AD20041
:100E7000144200D090E00022012094469046F100F8
:100E80006A181289BA4200D996E06A880136F6B229
:100E900051071FD4D20701D4012E44D900221E715C
:100EA0005A8008221A70414B063A5A60012062E7C4
:100EB000FB225A70F23A1A704163052040425AE709
:100EC000FE2202409AE7FE220A408107ABD50121AB
:100ED0000A43A8E7354A946AC022D200144200D0DF
:100EE00085E001200122002777E7012AD9D10821D6
:100EF0002E4A5160D5E70022944690461000BEE786
:100F00000420404237E78C6AC021C9000C4243D11B
:100F1000F10068180089B84263D80136F6B2D207EA
:100F2000BCD40120B8E7214A0027946A01229046E8
:100F30009446C022D2001442A1D0021E5DD00028E7
:100F400057D1002A00D01E7180229200224009D081
:100F5000FD225A70F43A1A7003200022134B4042CB
:100F60005A6308E761050ED40120092218561A7049
:100F7000FAE60E4901200A637F325A70F73A1A7076
:100F800002234B60F7E6FE2102205970F5391970F3
:100F9000064B40425A63EEE600220020CFE70222D1
:100FA0001A702B7801204B62E5E6C04600A0004095
:100FB000A4000020F0160000002815D14246002AA7
:100FC00000D05F806246002A00D01E716D186A68EA
:100FD000791C5980D15D0A4A0120516206221A709B
:100FE000C9E600229046944605221A70E6E70027DB
:100FF00001225F80A5E75F80F4E60132F9E7C04691
:1010000000A000401A4B10B598422ED18368DB0730
:1010100001D5202343604B889A0702D50A89002A0C
:1010200023D05B071ED40022124B01201A711A70C4
:101030005A80C0229960802158700D4B49005A6037
:10104000DA680A4203D0DA69DA680A42FBD1084852
:10105000094B0363FC23426BDB0013434363FFF73D
:1010600041FE10BD0B8A002BDDD104204042F8E781
:1010700000A00040A4000020FFFF010070B50500A3
:10108000FFF7C0FF012809D1054C02E0013C002C0C
:1010900004D02800FFF726FE0128F7D070BDC04617
:1010A000E093040010B501210848FFF7DBF90121A6
:1010B0000748FFF7D7F901210648FFF7D3F90122C6
:1010C00001210020FFF766FB10BDC04600B20400FE
:1010D00000820400D0233E0000B5002383B001222B
:1010E0000A210220FFF75AFD01230A2201930093EF
:1010F0000A2100230220FFF703FD03B000BDC04614
:1011000030B585B06C462200104B23CB23C21B6840
:10111000062113600E4B0B22A36003200123FFF76F
:101120003DFD01230B2207210320FFF737FD032399
:101130000848094A8363836B21001A4080235B00BF
:1011400013438363FFF7AEFD05B030BD18170000F1
:10115000DDFB050000A00040FFF8FFFF00B589B0EF
:101160006B46D9710949DA1D039102AB03A91870C6
:101170004B600123CA600B810B820548FFF77EFF9D
:10118000431E9841C0B209B000BDC046B600080079
:1011900000A0004000B587B06B461870094B01A94C
:1011A00001936B464B60012307480B81FFF72AFF31
:1011B000012804D10448FFF795FD0128FAD007B0B3
:1011C00000BDC046B600010000A0004000B587B0D9
:1011D0006B461870684602900120074B04920193F9
:1011E00001AB1881198205481900FFF747FF431E1C
:1011F0009841C0B207B000BDB600040000A0004096
:101200008A22054B5200995808329950034B1C3AD8
:10121000FF3A1A707047C04600600040B0000020DE
:1012200010B5FFF7EDFF10BD024A136801331360DC
:101230007047C046B4000020F0B5CE460122634B93
:1012400000B51A64624B82B0DB6C1B0E812B07D891
:10125000604B614A61491A60614A13680B40136030
:10126000FFF720FFFFF738FFFFF74AFFFEF772FF97
:101270005C48FFF7FDF9FA21890000F0C3F85A4BEA
:101280000138984200D998E0C021584A09065060B8
:101290005748584C036A1B021B0A0B430362002386
:1012A0009360073313602168534A23685B1A9342A3
:1012B000FBD9226823689B1A092BFBD96A460121B6
:1012C0002020FFF783FF226823689B1A092BFBD994
:1012D0006A4601210020FFF779FF226823689B1AE4
:1012E000092BFBD9F320FFF755FF226823689B1ACF
:1012F000632BFBD9F420FFF74DFF21683E4A23689A
:101300005B1A9342FBD918210120FFF727FF2268BF
:1013100023689B1A092BFBD96A460121E020FFF7BD
:1013200055FF226823689B1A092BFBD96A460121C5
:101330000120FFF74BFFC0220223304C5200A35084
:1013400023603E33A35000202360FFF79DFB022360
:101350002B4D80270226994609E0C02240235200E7
:10136000A65000202660A3502360FFF78DFB4B465C
:10137000E351BFF34F8FBFF36F8F4023E351BFF3B0
:101380004F8FBFF36F8F2B78002BE6D001AA02217D
:101390000220FFF71BFF00226B462A7096229B88D3
:1013A000D2005BBA9BB293420CD8E12292009342E6
:1013B00004D90120FEF7EAFECFE7FEE70020FEF7A2
:1013C000E5FECAE70320FEF7E1FEC6E700000C4099
:1013D000B081E00F18600C4005000004FFFFFFFE25
:1013E000E4800C4070000200FFFFFF0010E000E00E
:1013F00000ED00E0B4000020E703000000E100E0A1
:10140000B0000020002243088B4274D303098B42B2
:101410005FD3030A8B4244D3030B8B4228D3030CC4
:101420008B420DD3FF22090212BA030C8B4202D366
:101430001212090265D0030B8B4219D300E0090A8E
:10144000C30B8B4201D3CB03C01A5241830B8B4297
:1014500001D38B03C01A5241430B8B4201D34B0380
:10146000C01A5241030B8B4201D30B03C01A5241E5
:10147000C30A8B4201D3CB02C01A5241830A8B426A
:1014800001D38B02C01A5241430A8B4201D34B0253
:10149000C01A5241030A8B4201D30B02C01A5241B7
:1014A000CDD2C3098B4201D3CB01C01A524183096B
:1014B0008B4201D38B01C01A524143098B4201D3A5
:1014C0004B01C01A524103098B4201D30B01C01AD0
:1014D0005241C3088B4201D3CB00C01A524183084A
:1014E0008B4201D38B00C01A524143088B4201D377
:1014F0004B00C01A5241411A00D2014652411046D7
:101500007047FFE701B5002000F006F802BDC046B5
:101510000029F7D076E770477047C046084B10B5F2
:101520000400002B02D0002100E000BF054B18682A
:10153000836A002B00D09847200000F031F8C046A5
:10154000000000002817000070B500260C4D0D4C5F
:10155000641BA410A64209D1002600F023F80A4D0E
:101560000A4C641BA410A64205D170BDB300EB5811
:1015700098470136EEE7B300EB5898470136F2E79B
:101580007800002078000020780000207C000020F7
:1015900003001218934200D1704719700133F9E724
:1015A000FEE7C046F8B5C046F8BC08BC9E4670478A
:1015B000F8B5C046F8BC08BC9E4670470000000065
:1015C00001B40248844601BC604700BF710000209E
:1015D000F003000004040000F0030000F00300002A
:1015E00010040000F0030000F00300001E040000DF
:1015F0002C04000040040000F0030000F003000091
:10160000F0030000F40300008A040000AE040000B0
:10161000B60400008C0400008A0400008A04000064
:10162000C8040000BE040000940400008A04000006
:1016300076040000BA0500003405000090050000A3
:101640005E0500007A050000BA05000008050000EC
:101650000C050000DC070000E8070000F0070000B0
:10166000A8070000C8070000D00700005E080000BF
:10167000AC080000A0080000A008000090080000CE
:101680005E0800005E080000600800005E080000C0
:101690009009000078090000620900005E0800005F
:1016A0005E080000520900005E0800005E080000AD
:1016B0005E0800005E0800005E08000036090000B9
:1016C0005E0800005E080000A8090000160800007F
:1016D000A20900009C0900005E0800005E080000EE
:1016E0005E0800005E0800005E0800009609000029
:1016F000140E00007C0D0000B20D0000EA0D000089
:10170000340E0000F60E0000560E0000160D00000C
:10171000540D00000809110801010000000000003C
:10172000486B0100000000001000002000000000D5
:08173000ACE9FF7F010000009D
:10173800809FD50000366E0100800000006CDC023E
:101748000000000000000000000000000000000091
:101758000000000000000000000000000000000081
:101768000000000000000000000000000000000071
:101778000000000000000000000000000000000061
:101788000000000000000000000000000000000051
:101798000000000000000000000000000000000041
:1017A80030BF04231B687047BD000000950000008F
:04000003000001C137
:00000001FF
